{
  "contractName": "ZkIdentity",
  "abi": [
    {
      "constant": true,
      "inputs": [
        {
          "internalType": "int256",
          "name": "",
          "type": "int256"
        },
        {
          "internalType": "uint256",
          "name": "",
          "type": "uint256"
        }
      ],
      "name": "sk_hash_cishu",
      "outputs": [
        {
          "internalType": "int256",
          "name": "",
          "type": "int256"
        }
      ],
      "payable": false,
      "stateMutability": "view",
      "type": "function"
    },
    {
      "constant": true,
      "inputs": [
        {
          "internalType": "int256",
          "name": "",
          "type": "int256"
        },
        {
          "internalType": "uint256",
          "name": "",
          "type": "uint256"
        }
      ],
      "name": "result",
      "outputs": [
        {
          "internalType": "int256",
          "name": "",
          "type": "int256"
        }
      ],
      "payable": false,
      "stateMutability": "view",
      "type": "function"
    },
    {
      "constant": true,
      "inputs": [
        {
          "internalType": "int256",
          "name": "",
          "type": "int256"
        },
        {
          "internalType": "uint256",
          "name": "",
          "type": "uint256"
        }
      ],
      "name": "option",
      "outputs": [
        {
          "internalType": "bytes",
          "name": "",
          "type": "bytes"
        }
      ],
      "payable": false,
      "stateMutability": "view",
      "type": "function"
    },
    {
      "constant": true,
      "inputs": [
        {
          "internalType": "int256",
          "name": "",
          "type": "int256"
        }
      ],
      "name": "vote_cishu",
      "outputs": [
        {
          "internalType": "int256",
          "name": "",
          "type": "int256"
        }
      ],
      "payable": false,
      "stateMutability": "view",
      "type": "function"
    },
    {
      "constant": true,
      "inputs": [
        {
          "internalType": "uint256",
          "name": "",
          "type": "uint256"
        },
        {
          "internalType": "uint256",
          "name": "",
          "type": "uint256"
        }
      ],
      "name": "publicKeys",
      "outputs": [
        {
          "internalType": "uint256",
          "name": "",
          "type": "uint256"
        }
      ],
      "payable": false,
      "stateMutability": "view",
      "type": "function"
    },
    {
      "constant": true,
      "inputs": [],
      "name": "owner",
      "outputs": [
        {
          "internalType": "address",
          "name": "",
          "type": "address"
        }
      ],
      "payable": false,
      "stateMutability": "view",
      "type": "function"
    },
    {
      "constant": true,
      "inputs": [
        {
          "internalType": "uint256",
          "name": "",
          "type": "uint256"
        }
      ],
      "name": "pkHash_list",
      "outputs": [
        {
          "internalType": "uint256",
          "name": "",
          "type": "uint256"
        }
      ],
      "payable": false,
      "stateMutability": "view",
      "type": "function"
    },
    {
      "constant": true,
      "inputs": [
        {
          "internalType": "uint256[2]",
          "name": "a",
          "type": "uint256[2]"
        },
        {
          "internalType": "uint256[2][2]",
          "name": "b",
          "type": "uint256[2][2]"
        },
        {
          "internalType": "uint256[2]",
          "name": "c",
          "type": "uint256[2]"
        },
        {
          "internalType": "uint256[7]",
          "name": "input",
          "type": "uint256[7]"
        }
      ],
      "name": "verifyProof",
      "outputs": [
        {
          "internalType": "bool",
          "name": "r",
          "type": "bool"
        }
      ],
      "payable": false,
      "stateMutability": "view",
      "type": "function"
    },
    {
      "constant": true,
      "inputs": [
        {
          "internalType": "int256",
          "name": "",
          "type": "int256"
        },
        {
          "internalType": "uint256",
          "name": "",
          "type": "uint256"
        }
      ],
      "name": "sk_hash",
      "outputs": [
        {
          "internalType": "uint256",
          "name": "",
          "type": "uint256"
        }
      ],
      "payable": false,
      "stateMutability": "view",
      "type": "function"
    },
    {
      "constant": true,
      "inputs": [
        {
          "internalType": "string",
          "name": "",
          "type": "string"
        }
      ],
      "name": "vote",
      "outputs": [
        {
          "internalType": "int256",
          "name": "",
          "type": "int256"
        }
      ],
      "payable": false,
      "stateMutability": "view",
      "type": "function"
    },
    {
      "inputs": [],
      "payable": false,
      "stateMutability": "nonpayable",
      "type": "constructor"
    },
    {
      "constant": false,
      "inputs": [
        {
          "internalType": "string",
          "name": "vote_problem",
          "type": "string"
        }
      ],
      "name": "create_vote",
      "outputs": [],
      "payable": false,
      "stateMutability": "nonpayable",
      "type": "function"
    },
    {
      "constant": true,
      "inputs": [
        {
          "internalType": "string",
          "name": "vote_problem",
          "type": "string"
        }
      ],
      "name": "return_vote_id",
      "outputs": [
        {
          "internalType": "int256",
          "name": "",
          "type": "int256"
        }
      ],
      "payable": false,
      "stateMutability": "view",
      "type": "function"
    },
    {
      "constant": false,
      "inputs": [
        {
          "internalType": "string",
          "name": "option",
          "type": "string"
        }
      ],
      "name": "string2Bytes",
      "outputs": [
        {
          "internalType": "bytes",
          "name": "",
          "type": "bytes"
        }
      ],
      "payable": false,
      "stateMutability": "nonpayable",
      "type": "function"
    },
    {
      "constant": false,
      "inputs": [
        {
          "internalType": "bytes",
          "name": "option",
          "type": "bytes"
        }
      ],
      "name": "Bytes2string",
      "outputs": [
        {
          "internalType": "string",
          "name": "",
          "type": "string"
        }
      ],
      "payable": false,
      "stateMutability": "nonpayable",
      "type": "function"
    },
    {
      "constant": false,
      "inputs": [
        {
          "internalType": "string",
          "name": "vote_option",
          "type": "string"
        },
        {
          "internalType": "int256",
          "name": "id",
          "type": "int256"
        }
      ],
      "name": "create_option",
      "outputs": [],
      "payable": false,
      "stateMutability": "nonpayable",
      "type": "function"
    },
    {
      "constant": false,
      "inputs": [
        {
          "internalType": "string",
          "name": "vote_option",
          "type": "string"
        },
        {
          "internalType": "int256",
          "name": "id",
          "type": "int256"
        }
      ],
      "name": "find_option",
      "outputs": [],
      "payable": false,
      "stateMutability": "nonpayable",
      "type": "function"
    },
    {
      "constant": true,
      "inputs": [
        {
          "internalType": "int256",
          "name": "id",
          "type": "int256"
        }
      ],
      "name": "find_result",
      "outputs": [
        {
          "internalType": "int256",
          "name": "",
          "type": "int256"
        }
      ],
      "payable": false,
      "stateMutability": "view",
      "type": "function"
    },
    {
      "constant": true,
      "inputs": [],
      "name": "return_option",
      "outputs": [
        {
          "internalType": "uint256",
          "name": "",
          "type": "uint256"
        }
      ],
      "payable": false,
      "stateMutability": "view",
      "type": "function"
    },
    {
      "constant": false,
      "inputs": [
        {
          "internalType": "int256",
          "name": "id",
          "type": "int256"
        }
      ],
      "name": "vote_result",
      "outputs": [],
      "payable": false,
      "stateMutability": "nonpayable",
      "type": "function"
    },
    {
      "constant": true,
      "inputs": [],
      "name": "return_vote_result",
      "outputs": [
        {
          "internalType": "string",
          "name": "",
          "type": "string"
        }
      ],
      "payable": false,
      "stateMutability": "view",
      "type": "function"
    },
    {
      "constant": false,
      "inputs": [
        {
          "internalType": "uint256[2]",
          "name": "a",
          "type": "uint256[2]"
        },
        {
          "internalType": "uint256[2][2]",
          "name": "b",
          "type": "uint256[2][2]"
        },
        {
          "internalType": "uint256[2]",
          "name": "c",
          "type": "uint256[2]"
        },
        {
          "internalType": "uint256[7]",
          "name": "input",
          "type": "uint256[7]"
        }
      ],
      "name": "isInGroup",
      "outputs": [],
      "payable": false,
      "stateMutability": "nonpayable",
      "type": "function"
    },
    {
      "constant": true,
      "inputs": [
        {
          "internalType": "uint256",
          "name": "option_id",
          "type": "uint256"
        },
        {
          "internalType": "int256",
          "name": "id",
          "type": "int256"
        }
      ],
      "name": "test",
      "outputs": [
        {
          "internalType": "int256",
          "name": "",
          "type": "int256"
        }
      ],
      "payable": false,
      "stateMutability": "view",
      "type": "function"
    },
    {
      "constant": false,
      "inputs": [
        {
          "internalType": "int256",
          "name": "vote_id",
          "type": "int256"
        },
        {
          "internalType": "int256",
          "name": "cishu",
          "type": "int256"
        }
      ],
      "name": "votecishu",
      "outputs": [],
      "payable": false,
      "stateMutability": "nonpayable",
      "type": "function"
    }
  ],
  "bytecode": "0x60806040526000600b553480156200001657600080fd5b50336000806101000a81548173ffffffffffffffffffffffffffffffffffffffff021916908373ffffffffffffffffffffffffffffffffffffffff160217905550604051806040016040528060405180604001604052807f199f23e6ea887ca3d83853362e1615e382221b1fcbba22f54ce321035df2ba6b81526020017f21bf01130fd5a1b8f9c04548808b1f766c50c9cec1aead424a392d5bd551481b815250815260200160405180604001604052807f07db8093f1b3cdbcea4c68b7279fd0ad5ba63905f94291b32af24d25ce6bf73281526020017f275bfa8485faee1c94ae72bf32d04153c3e29fae3e77de6ae2bb8262cca172268152508152506001906002620001269291906200012d565b5062000230565b8260028002810192821562000171579160200282015b8281111562000170578251829060026200015f92919062000184565b509160200191906002019062000143565b5b509050620001809190620001c9565b5090565b8260028101928215620001b6579160200282015b82811115620001b557825182559160200191906001019062000198565b5b509050620001c59190620001fa565b5090565b620001f791905b80821115620001f35760008181620001e9919062000222565b50600201620001d0565b5090565b90565b6200021f91905b808211156200021b57600081600090555060010162000201565b5090565b90565b506000815560010160009055565b612f5280620002406000396000f3fe608060405234801561001057600080fd5b506004361061016a576000357c01000000000000000000000000000000000000000000000000000000009004806388119c02116100e0578063da2962c311610099578063da2962c314610b78578063dae640fd14610c33578063e3996a6714610c7f578063e55c1bf814610db3578063ef2e3b6a14610deb578063fc36e15b14610e095761016a565b806388119c02146107935780638da5cb5b1461085857806391651230146108a2578063bccc9cf9146108e4578063c894e757146109b3578063d67323d214610b2c5761016a565b806332ab79dc1161013257806332ab79dc14610447578063346cf262146104ca578063457e1ece1461050c5780634a4de8e3146105d157806366f0f0221461061357806375f18aab1461065f5761016a565b806304c7a4751461016f5780630ad29e83146101bb5780631bb2f2b8146102075780631e1196ed146102355780632998935e14610396575b600080fd5b6101a56004803603604081101561018557600080fd5b810190808035906020019092919080359060200190929190505050610ed8565b6040518082815260200191505060405180910390f35b6101f1600480360360408110156101d157600080fd5b810190808035906020019092919080359060200190929190505050610f06565b6040518082815260200191505060405180910390f35b6102336004803603602081101561021d57600080fd5b8101908080359060200190929190505050610f34565b005b61039460048036036101e081101561024c57600080fd5b8101908080604001906002806020026040519081016040528092919082600260200280828437600081840152601f19601f82011690508083019250505050505091929192908060800190600280602002604051908101604052809291906000905b82821015610301578382604002016002806020026040519081016040528092919082600260200280828437600081840152601f19601f820116905080830192505050505050815260200190600101906102ad565b50505050919291929080604001906002806020026040519081016040528092919082600260200280828437600081840152601f19601f82011690508083019250505050505091929192908060e001906007806020026040519081016040528092919082600760200280828437600081840152601f19601f82011690508083019250505050505091929192905050506110b3565b005b6103cc600480360360408110156103ac57600080fd5b8101908080359060200190929190803590602001909291905050506113c6565b6040518080602001828103825283818151815260200191508051906020019080838360005b8381101561040c5780820151818401526020810190506103f1565b50505050905090810190601f1680156104395780820380516001836020036101000a031916815260200191505b509250505060405180910390f35b61044f61148c565b6040518080602001828103825283818151815260200191508051906020019080838360005b8381101561048f578082015181840152602081019050610474565b50505050905090810190601f1680156104bc5780820380516001836020036101000a031916815260200191505b509250505060405180910390f35b6104f6600480360360208110156104e057600080fd5b810190808035906020019092919050505061152e565b6040518082815260200191505060405180910390f35b6105cf6004803603604081101561052257600080fd5b810190808035906020019064010000000081111561053f57600080fd5b82018360208201111561055157600080fd5b8035906020019184600183028401116401000000008311171561057357600080fd5b91908080601f016020809104026020016040519081016040528093929190818152602001838380828437600081840152601f19601f82011690508083019250505050505050919291929080359060200190929190505050611562565b005b6105fd600480360360208110156105e757600080fd5b8101908080359060200190929190505050611602565b6040518082815260200191505060405180910390f35b6106496004803603604081101561062957600080fd5b81019080803590602001909291908035906020019092919050505061161a565b6040518082815260200191505060405180910390f35b6107186004803603602081101561067557600080fd5b810190808035906020019064010000000081111561069257600080fd5b8201836020820111156106a457600080fd5b803590602001918460018302840111640100000000831117156106c657600080fd5b91908080601f016020809104026020016040519081016040528093929190818152602001838380828437600081840152601f19601f820116905080830192505050505050509192919290505050611642565b6040518080602001828103825283818151815260200191508051906020019080838360005b8381101561075857808201518184015260208101905061073d565b50505050905090810190601f1680156107855780820380516001836020036101000a031916815260200191505b509250505060405180910390f35b610856600480360360408110156107a957600080fd5b81019080803590602001906401000000008111156107c657600080fd5b8201836020820111156107d857600080fd5b803590602001918460018302840111640100000000831117156107fa57600080fd5b91908080601f016020809104026020016040519081016040528093929190818152602001838380828437600081840152601f19601f8201169050808301925050505050505091929192908035906020019092919050505061164c565b005b610860611847565b604051808273ffffffffffffffffffffffffffffffffffffffff1673ffffffffffffffffffffffffffffffffffffffff16815260200191505060405180910390f35b6108ce600480360360208110156108b857600080fd5b810190808035906020019092919050505061186c565b6040518082815260200191505060405180910390f35b61099d600480360360208110156108fa57600080fd5b810190808035906020019064010000000081111561091757600080fd5b82018360208201111561092957600080fd5b8035906020019184600183028401116401000000008311171561094b57600080fd5b91908080601f016020809104026020016040519081016040528093929190818152602001838380828437600081840152601f19601f82011690508083019250505050505050919291929050505061188d565b6040518082815260200191505060405180910390f35b610b1260048036036101e08110156109ca57600080fd5b8101908080604001906002806020026040519081016040528092919082600260200280828437600081840152601f19601f82011690508083019250505050505091929192908060800190600280602002604051908101604052809291906000905b82821015610a7f578382604002016002806020026040519081016040528092919082600260200280828437600081840152601f19601f82011690508083019250505050505081526020019060010190610a2b565b50505050919291929080604001906002806020026040519081016040528092919082600260200280828437600081840152601f19601f82011690508083019250505050505091929192908060e001906007806020026040519081016040528092919082600760200280828437600081840152601f19601f8201169050808301925050505050509192919290505050611900565b604051808215151515815260200191505060405180910390f35b610b6260048036036040811015610b4257600080fd5b810190808035906020019092919080359060200190929190505050611afc565b6040518082815260200191505060405180910390f35b610c3160048036036020811015610b8e57600080fd5b8101908080359060200190640100000000811115610bab57600080fd5b820183602082011115610bbd57600080fd5b80359060200191846001830284011164010000000083111715610bdf57600080fd5b91908080601f016020809104026020016040519081016040528093929190818152602001838380828437600081840152601f19601f820116905080830192505050505050509192919290505050611b2a565b005b610c6960048036036040811015610c4957600080fd5b810190808035906020019092919080359060200190929190505050611baf565b6040518082815260200191505060405180910390f35b610d3860048036036020811015610c9557600080fd5b8101908080359060200190640100000000811115610cb257600080fd5b820183602082011115610cc457600080fd5b80359060200191846001830284011164010000000083111715610ce657600080fd5b91908080601f016020809104026020016040519081016040528093929190818152602001838380828437600081840152601f19601f820116905080830192505050505050509192919290505050611be2565b6040518080602001828103825283818151815260200191508051906020019080838360005b83811015610d78578082015181840152602081019050610d5d565b50505050905090810190601f168015610da55780820380516001836020036101000a031916815260200191505b509250505060405180910390f35b610de960048036036040811015610dc957600080fd5b810190808035906020019092919080359060200190929190505050611bec565b005b610df3611c08565b6040518082815260200191505060405180910390f35b610ec260048036036020811015610e1f57600080fd5b8101908080359060200190640100000000811115610e3c57600080fd5b820183602082011115610e4e57600080fd5b80359060200191846001830284011164010000000083111715610e7057600080fd5b91908080601f016020809104026020016040519081016040528093929190818152602001838380828437600081840152601f19601f820116905080830192505050505050509192919290505050611c12565b6040518082815260200191505060405180910390f35b600f6020528160005260406000208181548110610ef157fe5b90600052602060002001600091509150505481565b600d6020528160005260406000208181548110610f1f57fe5b90600052602060002001600091509150505481565b6000809050600080905060008090505b600d600085815260200190815260200160002080549050811015610fce5782600d60008681526020019081526020016000208281548110610f8157fe5b90600052602060002001541315610fc157600d60008581526020019081526020016000208181548110610fb057fe5b906000526020600020015492508091505b8080600101915050610f44565b50611098600c60008581526020019081526020016000208281548110610ff057fe5b906000526020600020018054600181600116156101000203166002900480601f01602080910402602001604051908101604052809291908181526020018280546001816001161561010002031660029004801561108e5780601f106110635761010080835404028352916020019161108e565b820191906000526020600020905b81548152906001019060200180831161107157829003601f168201915b5050505050611642565b600790805190602001906110ad929190612c71565b50505050565b60016000600281106110c157fe5b600202016000600281106110d157fe5b0154816000600781106110e057fe5b602002015114158015611123575060016000600281106110fc57fe5b6002020160016002811061110c57fe5b01548160016007811061111b57fe5b602002015114155b801561115e57506001806002811061113757fe5b6002020160006002811061114757fe5b01548160026007811061115657fe5b602002015114155b801561119957506001806002811061117257fe5b6002020160016002811061118257fe5b01548160036007811061119157fe5b602002015114155b156111ef576040517f08c379a000000000000000000000000000000000000000000000000000000000815260040180806020018281038252602b815260200180612ef3602b913960400191505060405180910390fd5b6000606490506000806000905061120887878787611900565b156113bd5760008460066007811061121c57fe5b60200201519050600a600082815260200190815260200160002054925060008090505b600e6000838152602001908152602001600020805490508110156112af578560046007811061126a57fe5b6020020151600e6000848152602001908152602001600020828154811061128d57fe5b906000526020600020015414156112a2578094505b808060010191505061123f565b50606484146112ee5782600f600083815260200190815260200160002085815481106112d757fe5b906000526020600020015412156112ed57600191505b5b60648414806112fd5750600182145b156113bb5761132e8560056007811061131257fe5b60200201518660066007811061132457fe5b6020020151611c40565b600e60008281526020019081526020016000208560046007811061134e57fe5b60200201519080600181540180825580915050906001820390600052602060002001600090919290919091505550600f6000828152602001908152602001600020600090806001815401808255809150509060018203906000526020600020016000909192909190915055505b505b50505050505050565b600c60205281600052604060002081815481106113df57fe5b90600052602060002001600091509150508054600181600116156101000203166002900480601f0160208091040260200160405190810160405280929190818152602001828054600181600116156101000203166002900480156114845780601f1061145957610100808354040283529160200191611484565b820191906000526020600020905b81548152906001019060200180831161146757829003601f168201915b505050505081565b606060078054600181600116156101000203166002900480601f0160208091040260200160405190810160405280929190818152602001828054600181600116156101000203166002900480156115245780601f106114f957610100808354040283529160200191611524565b820191906000526020600020905b81548152906001019060200180831161150757829003601f168201915b5050505050905090565b6000600d60008381526020019081526020016000206006548154811061155057fe5b90600052602060002001549050919050565b606061156d83611be2565b9050600c60008381526020019081526020016000208190806001815401808255809150509060018203906000526020600020016000909192909190915090805190602001906115bd929190612cf1565b5050600d600083815260200190815260200160002060009080600181540180825580915050906001820390600052602060002001600090919290919091505550505050565b600a6020528060005260406000206000915090505481565b6001826002811061162757fe5b60020201816002811061163657fe5b01600091509150505481565b6060819050919050565b60008090505b600c60008381526020019081526020016000208054905081101561184257606061173b600c6000858152602001908152602001600020838154811061169357fe5b906000526020600020018054600181600116156101000203166002900480601f0160208091040260200160405190810160405280929190818152602001828054600181600116156101000203166002900480156117315780601f1061170657610100808354040283529160200191611731565b820191906000526020600020905b81548152906001019060200180831161171457829003601f168201915b5050505050611642565b9050836040516020018082805190602001908083835b602083106117745780518252602082019150602081019050602083039250611751565b6001836020036101000a03801982511681845116808217855250505050505090500191505060405160208183030381529060405280519060200120816040516020018082805190602001908083835b602083106117e657805182526020820191506020810190506020830392506117c3565b6001836020036101000a038019825116818451168082178552505050505050905001915050604051602081830303815290604052805190602001201415611834578160068190555050611842565b508080600101915050611652565b505050565b6000809054906101000a900473ffffffffffffffffffffffffffffffffffffffff1681565b6005818154811061187957fe5b906000526020600020016000915090505481565b60006009826040518082805190602001908083835b602083106118c557805182526020820191506020810190506020830392506118a2565b6001836020036101000a0380198251168184511680821785525050505050509050019150509081526020016040518091039020549050919050565b600061190a612d71565b60405180604001604052808760006002811061192257fe5b602002015181526020018760016002811061193957fe5b60200201518152508160000181905250604051806040016040528060405180604001604052808860006002811061196c57fe5b602002015160006002811061197d57fe5b602002015181526020018860006002811061199457fe5b60200201516001600281106119a557fe5b602002015181525081526020016040518060400160405280886001600281106119ca57fe5b60200201516000600281106119db57fe5b60200201518152602001886001600281106119f257fe5b6020020151600160028110611a0357fe5b60200201518152508152508160200181905250604051806040016040528085600060028110611a2e57fe5b6020020151815260200185600160028110611a4557fe5b6020020151815250816040018190525060606007604051908082528060200260200182016040528015611a875781602001602082028038833980820191505090505b50905060008090505b6007811015611acf57848160078110611aa557fe5b6020020151828281518110611ab657fe5b6020026020010181815250508080600101915050611a90565b506000611adc8284611c82565b1415611aed57600192505050611af4565b6000925050505b949350505050565b600e6020528160005260406000208181548110611b1557fe5b90600052602060002001600091509150505481565b600b546009826040518082805190602001908083835b60208310611b635780518252602082019150602081019050602083039250611b40565b6001836020036101000a038019825116818451168082178552505050505050905001915050908152602001604051809103902081905550600b6000815480929190600101919050555050565b6000600d60008381526020019081526020016000208381548110611bcf57fe5b9060005260206000200154905092915050565b6060819050919050565b80600a6000848152602001908152602001600020819055505050565b6000600654905090565b6009818051602081018201805184825260208301602085012081835280955050505050506000915090505481565b6000819050600d60008281526020019081526020016000208381548110611c6357fe5b9060005260206000200160008154809291906001019190505550505050565b6000807f30644e72e131a029b85045b68181585d2833e84879b9709143e1f593f00000019050611cb0612da4565b611cb8611eb6565b9050806080015151600186510114611d38576040517f08c379a00000000000000000000000000000000000000000000000000000000081526004018080602001828103825260128152602001807f76657269666965722d6261642d696e707574000000000000000000000000000081525060200191505060405180910390fd5b611d40612deb565b6040518060400160405280600081526020016000815250905060008090505b8651811015611e3f5783878281518110611d7557fe5b602002602001015110611df0576040517f08c379a000000000000000000000000000000000000000000000000000000000815260040180806020018281038252601f8152602001807f76657269666965722d6774652d736e61726b2d7363616c61722d6669656c640081525060200191505060405180910390fd5b611e3082611e2b85608001516001850181518110611e0a57fe5b60200260200101518a8581518110611e1e57fe5b6020026020010151612539565b612634565b91508080600101915050611d5f565b50611e62818360800151600081518110611e5557fe5b6020026020010151612634565b9050611e98611e74866000015161274e565b8660200151846000015185602001518587604001518b6040015189606001516127e8565b611ea85760019350505050611eb0565b600093505050505b92915050565b611ebe612da4565b60405180604001604052807f2796e52caf6d9cf510b487a1f72b514ee02453fb1abd8abfd058834205fb67e281526020017f1b7d85f8cb1c311f38fc38764061e59dff36ec2d4e623eae74be49f84f51f5228152508160000181905250604051806040016040528060405180604001604052807f157b7ce8713a7b607bd0aac5bc39ee291bfdbdbb4805ff0779d37401075ed01281526020017f261a9393bb6ee013c394bafd85897ab2fe50988fac06d908c2448933d3ce8366815250815260200160405180604001604052807f102beaa5df7c75b696a615bbf8ed6fc69fdeacbd426c70eb5eab2d5587fd571f81526020017f11339a52858d09f776d0d4fa216509929e0f13304f12fa7b48689f72877b450b8152508152508160200181905250604051806040016040528060405180604001604052807f21af2a388788564d02345e738002693b3a00f1e47bb42556b6103b9bf154b5ea81526020017f02589a09eda234442c1f22b1be4ed0a196a7f593c5da1e0e54218d369a894726815250815260200160405180604001604052807f08c79c91aea8feecceff994b622bc1ad3f11925281f951e552cef0a4cad791b181526020017f299ba69eaacb2e2ee79793186ecf438cbf0858768b90587b8a188f9b9819b4fe8152508152508160400181905250604051806040016040528060405180604001604052807f0ae737550b0f83ef3e7ff4e4db287609ea2eee83eb18e124a99e29e8f24eaef881526020017f25a586858120c7317e3a0ab217ac5bc09e06479a26937e4597ec2df5b4b389ea815250815260200160405180604001604052807f10711d08ccc65944af2614c5e219b3a6995c46366330c288ec881992444c935e81526020017f0e1ecf77934128fb504188526be0225d4f2c15fedd612c8416a3cfbb8593ceda815250815250816060018190525060086040519080825280602002602001820160405280156121a557816020015b612192612e05565b81526020019060019003908161218a5790505b50816080018190525060405180604001604052807f0dd88b7d068bd821ce294bf28f507eef9bd62ead3b5959d77a6e2a4cccec4aa581526020017f121a2eb13e21337b342004d7218daaa73a06f6e7bbe5302000e42353d4b37168815250816080015160008151811061221457fe5b602002602001018190525060405180604001604052807f24a17d47a6d1b8260b4be7339f3fbbdf0748658bb213baa0beea8d770eabd46381526020017f24cf779746b4a803dcc506291211fd215cc258ec61799cc2f0f8c199b0a72582815250816080015160018151811061228557fe5b602002602001018190525060405180604001604052807f14c65aa506fdc4324fbfbd089bdddb3dc43b9cea75868fbe5bafe347f74e36f081526020017f2f07c654280b4943e5699a6aa30d8805e9c6c7dbfd011f3fa5329300cca3403b81525081608001516002815181106122f657fe5b602002602001018190525060405180604001604052807f1a0ce3c871b41b42787d675a454a4b399c6dbf9492edbe3cb5a0c5b263f8f13981526020017f039d164f6ac56ccbaa3c5b7999145c0dce8a709ddaf0a5c530a37a5a2e2f0efe815250816080015160038151811061236757fe5b602002602001018190525060405180604001604052807f2a5b609818e96264f4b4242ed3a6688a3ad22efe0a54de3454f952f3528535f281526020017f046b36e0620214fb191108d17bd67d4a3cfb1c112a4b90867f0838282f6df4df81525081608001516004815181106123d857fe5b602002602001018190525060405180604001604052807f02fe0792fec030aef32c35df72a7196029be40cc9cdb2257155271ce3cb91afa81526020017f1d3becab66d6f5cf0a52db703e2483c92fdd4952add7635311bca1d5c31ffd5f815250816080015160058151811061244957fe5b602002602001018190525060405180604001604052807f0116f390cb2c1492d9da07a12fa355320d94ebd6a0a46bd8b49e1cd623a7874381526020017f24664f3565a729a971b6ccd4e366e605cb81308bee16c04458b70af52b8d6e6881525081608001516006815181106124ba57fe5b602002602001018190525060405180604001604052807f25bf24994c2182443ed949b2cea00b2e7f34308dcb1a9b40aae0a16d8e6cc8f581526020017f265252ac38dc1839f89929331fe72c88543e49ce70317625d7e4726b598c029a815250816080015160078151811061252b57fe5b602002602001018190525090565b612541612deb565b612549612e1f565b83600001518160006003811061255b57fe5b60200201818152505083602001518160016003811061257657fe5b602002018181525050828160026003811061258d57fe5b602002018181525050600060608360808460076107d05a03fa905080600081146125b6576125b8565bfe5b508061262c576040517f08c379a00000000000000000000000000000000000000000000000000000000081526004018080602001828103825260128152602001807f70616972696e672d6d756c2d6661696c6564000000000000000000000000000081525060200191505060405180910390fd5b505092915050565b61263c612deb565b612644612e41565b83600001518160006004811061265657fe5b60200201818152505083602001518160016004811061267157fe5b60200201818152505082600001518160026004811061268c57fe5b6020020181815250508260200151816003600481106126a757fe5b602002018181525050600060608360c08460066107d05a03fa905080600081146126d0576126d2565bfe5b5080612746576040517f08c379a00000000000000000000000000000000000000000000000000000000081526004018080602001828103825260128152602001807f70616972696e672d6164642d6661696c6564000000000000000000000000000081525060200191505060405180910390fd5b505092915050565b612756612deb565b60007f30644e72e131a029b85045b68181585d97816a916871ca8d3c208c16d87cfd47905060008360000151148015612793575060008360200151145b156127b75760405180604001604052806000815260200160008152509150506127e3565b604051806040016040528084600001518152602001828560200151816127d957fe5b0683038152509150505b919050565b60006060600460405190808252806020026020018201604052801561282757816020015b612814612e05565b81526020019060019003908161280c5790505b5090506060600460405190808252806020026020018201604052801561286757816020015b612854612e63565b81526020019060019003908161284c5790505b5090508a8260008151811061287857fe5b6020026020010181905250888260018151811061289157fe5b602002602001018190525086826002815181106128aa57fe5b602002602001018190525084826003815181106128c357fe5b602002602001018190525089816000815181106128dc57fe5b602002602001018190525087816001815181106128f557fe5b6020026020010181905250858160028151811061290e57fe5b6020026020010181905250838160038151811061292757fe5b602002602001018190525061293c828261294c565b9250505098975050505050505050565b600081518351146129c5576040517f08c379a00000000000000000000000000000000000000000000000000000000081526004018080602001828103825260168152602001807f70616972696e672d6c656e677468732d6661696c65640000000000000000000081525060200191505060405180910390fd5b6000835190506000600682029050606081604051908082528060200260200182016040528015612a045781602001602082028038833980820191505090505b50905060008090505b83811015612baa57868181518110612a2157fe5b602002602001015160000151826000600684020181518110612a3f57fe5b602002602001018181525050868181518110612a5757fe5b602002602001015160200151826001600684020181518110612a7557fe5b602002602001018181525050858181518110612a8d57fe5b602002602001015160000151600060028110612aa557fe5b6020020151826002600684020181518110612abc57fe5b602002602001018181525050858181518110612ad457fe5b602002602001015160000151600160028110612aec57fe5b6020020151826003600684020181518110612b0357fe5b602002602001018181525050858181518110612b1b57fe5b602002602001015160200151600060028110612b3357fe5b6020020151826004600684020181518110612b4a57fe5b602002602001018181525050858181518110612b6257fe5b602002602001015160200151600160028110612b7a57fe5b6020020151826005600684020181518110612b9157fe5b6020026020010181815250508080600101915050612a0d565b50612bb3612e89565b6000602082602086026020860160086107d05a03fa90508060008114612bd857612bda565bfe5b5080612c4e576040517f08c379a00000000000000000000000000000000000000000000000000000000081526004018080602001828103825260158152602001807f70616972696e672d6f70636f64652d6661696c6564000000000000000000000081525060200191505060405180910390fd5b600082600060018110612c5d57fe5b602002015114159550505050505092915050565b828054600181600116156101000203166002900490600052602060002090601f016020900481019282601f10612cb257805160ff1916838001178555612ce0565b82800160010185558215612ce0579182015b82811115612cdf578251825591602001919060010190612cc4565b5b509050612ced9190612eab565b5090565b828054600181600116156101000203166002900490600052602060002090601f016020900481019282601f10612d3257805160ff1916838001178555612d60565b82800160010185558215612d60579182015b82811115612d5f578251825591602001919060010190612d44565b5b509050612d6d9190612eab565b5090565b6040518060600160405280612d84612e05565b8152602001612d91612e63565b8152602001612d9e612e05565b81525090565b6040518060a00160405280612db7612e05565b8152602001612dc4612e63565b8152602001612dd1612e63565b8152602001612dde612e63565b8152602001606081525090565b604051806040016040528060008152602001600081525090565b604051806040016040528060008152602001600081525090565b6040518060600160405280600390602082028038833980820191505090505090565b6040518060800160405280600490602082028038833980820191505090505090565b6040518060400160405280612e76612ed0565b8152602001612e83612ed0565b81525090565b6040518060200160405280600190602082028038833980820191505090505090565b612ecd91905b80821115612ec9576000816000905550600101612eb1565b5090565b90565b604051806040016040528060029060208202803883398082019150509050509056fe537570706c696564207075626c6963206b65797320646f206e6f74206d6174636820636f6e747261637473a265627a7a72315820578f0378dd2a17924ff3fd1f01e22b6db94d2377292cdf488a5d0fa98454d5bf64736f6c634300050b0032",
  "source": "pragma solidity 0.5.11;\n\nimport \"zk-circuits/build/Verifier.sol\";\n\ncontract ZkIdentity is Verifier {\n    address public owner;\n    uint256[2][2] public publicKeys;\n    uint256[] public pkHash_list;\n    uint flag;\n    string fin;\n    bool panduan;\n\n    mapping (string => int) public vote;\n    mapping (int => int) public vote_cishu;\n\n    int vote_id = 0;\n    mapping (int => bytes[]) public option;\n    mapping (int => int[]) public result;\n    mapping (int => uint256[]) public sk_hash;\n    mapping (int => int[]) public sk_hash_cishu;\n\n    constructor() public {\n        owner = msg.sender;\n        publicKeys = [\n            [\n                11588997684490517626294634429607198421449322964619894214090255452938985192043,\n                15263799208273363060537485776371352256460743310329028590780329826273136298011\n            ],\n            [\n                3554016859368109379302439886604355056694273932204896584100714954675075151666,\n                17802713187051641282792755605644920157679664448965917618898436110214540390950\n            ]\n        ];\n    }\n\n    function create_vote(string memory vote_problem) public {\n        vote[vote_problem] = vote_id;\n        vote_id++;\n    }\n\n    function return_vote_id(string memory vote_problem) public view returns (int) {\n        return vote[vote_problem];\n    }\n\n    function string2Bytes(string memory option) public returns (bytes memory){\n        return bytes(option);\n    }\n\n    function Bytes2string(bytes memory option) public returns (string memory) {\n        return string(option);\n    }\n\n    function create_option(string memory vote_option, int id) public {\n        bytes memory mid = string2Bytes(vote_option);\n        option[id].push(mid);\n        result[id].push(0);\n    }\n\n    function find_option(string memory vote_option, int id) public {\n        for(uint i = 0; i < option[id].length; i++){\n            string memory mid = Bytes2string(option[id][i]);\n            if (keccak256(abi.encodePacked(mid)) == keccak256(abi.encodePacked(vote_option))) {\n                flag = i;\n                break;\n            }\n        }\n    }\n\n    function find_result(int id) public view returns (int) {\n        return result[id][flag];\n    }\n\n    function return_option() public view returns (uint) {\n        return flag;\n    }\n\n    function vote_count(uint option_id, uint id) private {\n        int n = int(id);\n        result[n][option_id]++;\n    }\n\n    function vote_result(int id) public {\n        int p = 0;\n        uint q = 0;\n        for(uint i = 0; i < result[id].length; i++) {\n            if(result[id][i] > p){\n                p = result[id][i];\n                q = i;\n            }\n        }\n        fin = Bytes2string(option[id][q]);\n    }\n\n    function return_vote_result() public view returns (string memory) {\n        return fin;\n    }\n\n    function isInGroup(\n        uint256[2] memory a,\n        uint256[2][2] memory b,\n        uint256[2] memory c,\n        uint256[7] memory input // public inputs\n    ) public {\n        if (\n            input[0] != publicKeys[0][0] &&\n            input[1] != publicKeys[0][1] &&\n            input[2] != publicKeys[1][0] &&\n            input[3] != publicKeys[1][1]\n        ) {\n            revert(\"Supplied public keys do not match contracts\");\n        }\n\n        uint256 biaozhi = 100;\n        int cishu;\n        int sss = 0;\n        if (verifyProof(a, b, c, input)) {\n            int p = int(input[6]);\n            cishu = vote_cishu[p];\n            for (uint i = 0; i < sk_hash[p].length; i++) {\n                if (sk_hash[p][i] == input[4]) {\n                    biaozhi = i;\n                }\n            }\n            if (biaozhi != 100) {\n                if (sk_hash_cishu[p][biaozhi] < cishu){\n                    sss = 1;\n                }\n            }\n            if (biaozhi == 100 || sss == 1) {\n                vote_count(input[5], input[6]);\n                sk_hash[p].push(input[4]);\n                sk_hash_cishu[p].push(0);\n            }\n        }\n\n    }\n\n    function test(uint option_id, int id) public view returns (int) {\n        return result[id][option_id];\n    }\n\n    function votecishu(int vote_id, int cishu) public {\n        vote_cishu[vote_id] = cishu;\n    }\n}\n",
  "sourcePath": "/home/yuquan/code/zkdapp-vote-main/packages/zk-contracts/src/ZkIdentity.sol",
  "compiler": {
    "name": "solc",
    "version": "0.5.11+commit.c082d0b4.Emscripten.clang"
  },
  "schemaVersion": "3.4.3",
  "updatedAt": "2021-11-19T03:45:04.491Z",
  "networkType": "ethereum",
  "devdoc": {
    "methods": {}
  },
  "userdoc": {
    "methods": {}
  }
}